:020000020000FC
:0200000012C02C
:100026000FE50DBF04E00EBF2CE031E082D0A6D074
:10003600CAD03ED168D17CD133952A95C1F7B0E0BC
:10004600A0E6D0E0C8E7F0E0E0E70D9111910127C6
:1000560009930D911191012709930D911191012792
:1000660009930D911191012709930D911191012782
:1000760009930D911191012709930D911191012772
:1000860009930D911191012708832CE031E03ED0B0
:100096009AD033952A95E1F7B0E0A0E6D0E0C8E71C
:1000A600F0E0E0E70D911881012701930D91198188
:1000B600012701930D911A81012701930D911B814F
:1000C600012701930D911C81012701930D911D813B
:1000D600012701930D911E81012701930D911F8127
:1000E600012700832CE030E086D1E2D0A5D046D0AF
:1000F60033952A95C9F7B0E0A0E70D910D910D91C2
:100106000D910D910D910D910D910895B0E0A0E620
:1001160000E00D9300E00D9300E00D9300E00D93D9
:1001260000E00D9300E00D9300E00D9300E00C93CA
:100136000895B0E0A0E600E00D9300E00D9300E026
:100146000D9300E00D9300E00D9300E00D9300E0A9
:100156000D9300E00C93B0E0A0E70FEF0D930FEFC7
:100166000D930FEF0D930FEF0D930FEF0D930FEF11
:100176000D930FEF0D930FEF0C930895B0E0A0E6EB
:10018600F0E0E0E72D903080232421922D903080FE
:10019600232421922D903080232421922D9030808B
:1001A600232421922D903080232421922D9030807B
:1001B600232421922D903080232421922D9030806B
:1001C600232420820895B0E0A0E6D0E0C8E60D9191
:1001D60009930D9109930D9109930D9109930C9132
:1001E6000883B0E0A0E6D0E0C0E60D810D930E8155
:1001F6000D930F8103270D930C810C93B0E0A8E6B5
:10020600A395D0E0C0E60D911D8101270C830D91C9
:100216001E810127FCE0E02F04910D830C911F81C4
:100226000127FCE0E02F04910E83F0E0E8E6008170
:10023600148101270F830895D0E0C0E6B0E0A8E658
:10024600A395A395A395A3950C810D930D810D936D
:100256000E810D930F810C93D0E0C0E60B810C83C9
:1002660008810D8309810E830A811CE0131B012777
:100276000F83B0E0A8E6D0E0C0E6A395A395A395CA
:10028600A3950D911D81012709830D91FCE0E02FB7
:1002960004911E8101270A830D91FCE0E02F049151
:1002A6001F8101270B830D911C8101270883089567
:1002B600B0E0A0E70C91FCE0E02F04910D930C91C7
:1002C600FCE0E02F04910D930C91FCE0E02F0491EB
:1002D6000D930C91FCE0E02F04910D930C91FCE042
:1002E600E02F04910D930C91FCE0E02F04910D9307
:1002F6000C91FCE0E02F04910D930C91FCE0E02FB3
:1003060004910C930895B0E0A8E6D0E0C0E70A8116
:100316000D930B810D930C810D930D810D930E8121
:100326000D930F810D9308810D9309810C93089508
:10033600B0E0A0E7D0E0C8E60881198101271A815C
:1003460001271B810127E880F980EF24FDE0EE2DCF
:10035600E490C880EC24E026ED92E980FA80EF2450
:10036600FDE0EE2DE490C980EC24E026ED92EA80D3
:10037600FB80EF24FDE0EE2DE490CA80EC24E0261D
:10038600ED92EB80F880EF24FDE0EE2DE490CB803B
:10039600EC24E026ED920C811D8101271E810127A8
:1003A6001F810127EC80FD80EF24FDE0EE2DE49017
:1003B600CC80EC24E026ED92ED80FE80EF24FDE07B
:1003C600EE2DE490CD80EC24E026ED92EE80FF80C9
:1003D600EF24FDE0EE2DE490CE80EC24E026ED92B5
:1003E600EF80FC80EF24FDE0EE2DE490CF80EC243E
:1003F600E026EC920895B0E0A8E6D0E0C0E70881D8
:100406000D9309810D930A810D930B810D930C8138
:100416000D930D810D930E810D930F810C93B0E01A
:10042600A8E60D91AD901D910127FDE0E02FE49027
:10043600FDE0EE2DE490B0E0A8E6AD900D91BD9004
:100446001D910127FDE0E02FF490FDE0EF2DF490E3
:100456000D91AD901D910127FDE0E02FC490FDE0C8
:10046600EC2DC4900A2D1D910127FDE0E02FD490BC
:10047600FDE0ED2DD490B0E0A8E60C910E250D938D
:100486000C910F250D930C910E250D930C910F25B4
:100496000D930C910C250D930C910D250D930C913C
:1004A6000C250D930C910D250C93B0E0A8E6ED906C
:1004B600FD90EF24FD90EF24FD90EF24B0E0A8E638
:1004C600CD90DD90CD24FDE0EC2DC490B0E0A8E603
:1004D6000D910C250E250A83CD90DC90CD24FDE0F0
:1004E600EC2DC490AA950C910C250E250B83A39593
:1004F600CD90DC90DC24FDE0ED2DD4900C2D0D2567
:100506000E250C83CC90B0E0A8E6DD90CD24FDE06E
:10051600EC2DC4900D910D910D910C250E250D839A
:10052600ED90FD908D909D90AE2CBF2CC82CD92CB3
:10053600EF24FC2489249E2C9824FDE0EE2DE490E3
:100546000A2D0E2509250E83FDE0EF2DF4900B2DC7
:100556000F2509250F83FDE0E82D04910C250925BB
:1005660008830A2D0D25FDE0E02F04910D250925B0
:040576000983089558
:100C000077747A79717F7B707C737276787E7D756C
:100C100047444A49414F4B404C434246484E4D455C
:100C2000A7A4AAA9A1AFABA0ACA3A2A6A8AEADA54C
:100C300097949A99919F9B909C939296989E9D953C
:100C400017141A19111F1B101C131216181E1D152C
:100C5000F7F4FAF9F1FFFBF0FCF3F2F6F8FEFDF51C
:100C6000B7B4BAB9B1BFBBB0BCB3B2B6B8BEBDB50C
:100C700007040A09010F0B000C030206080E0D05FC
:100C8000C7C4CAC9C1CFCBC0CCC3C2C6C8CECDC5EC
:100C900037343A39313F3B303C333236383E3D35DC
:100CA00027242A29212F2B202C232226282E2D25CC
:100CB00067646A69616F6B606C636266686E6D65BC
:100CC00087848A89818F8B808C838286888E8D85AC
:100CD000E7E4EAE9E1EFEBE0ECE3E2E6E8EEEDE59C
:100CE000D7D4DAD9D1DFDBD0DCD3D2D6D8DEDDD58C
:100CF00057545A59515F5B505C535256585E5D557C
:100D000000020406080A0C0E10121416181A1C1EF3
:100D100020222426282A2C2E30323436383A3C3EE3
:100D200040424446484A4C4E50525456585A5C5ED3
:100D300060626466686A6C6E70727476787A7C7EC3
:100D400080828486888A8C8E90929496989A9C9EB3
:100D5000A0A2A4A6A8AAACAEB0B2B4B6B8BABCBEA3
:100D6000C0C2C4C6C8CACCCED0D2D4D6D8DADCDE93
:100D7000E0E2E4E6E8EAECEEF0F2F4F6F8FAFCFE83
:100D80001B191F1D131117150B090F0D0301070563
:100D90003B393F3D333137352B292F2D2321272553
:100DA0005B595F5D535157554B494F4D4341474543
:100DB0007B797F7D737177756B696F6D6361676533
:100DC0009B999F9D939197958B898F8D8381878523
:100DD000BBB9BFBDB3B1B7B5ABA9AFADA3A1A7A513
:100DE000DBD9DFDDD3D1D7D5CBC9CFCDC3C1C7C503
:100DF000FBF9FFFDF3F1F7F5EBE9EFEDE3E1E7E5F3
:00000001FF
