:020000020000FC
:0200000012C02C
:100026000FE50DBF04E00EBF24E131E080D0ACD077
:10003600D0D05CD186D19AD133952A95C1F7B0E05C
:10004600A0E6D0E0CCE7F0E0E4E70D9111910127BE
:1000560009930D911191012709930D911191012792
:1000660009930D911191012709930D911191012782
:1000760009930D911191012709930D911191012772
:1000860009930D91119101270883089524E131E028
:1000960033D09FD033952A95E1F7B0E0A0E6D0E0C3
:1000A600CCE7F0E0E4E70D911881012701930D916B
:1000B6001981012701930D911A81012701930D9151
:1000C6001B81012701930D911C81012701930D913D
:1000D6001D81012701930D911E81012701930D9129
:1000E6001F810127008324E130E0A3D1FFD0BAD0DD
:1000F6004BD033952A95C9F7B0E0A0E60FEF0D93E4
:100106000FEF0D930FEF0D930FEF0D930FEF0D9371
:100116000FEF0D930FEF0D930FEF0D930FEF0D9361
:100126000FEF0D930FEF0D930FEF0C930895B0E0C3
:10013600A0E60FEF0D930FEF0D930FEF0D930FEF5B
:100146000D930FEF0D930FEF0D930FEF0D930FEF31
:100156000D930FEF0D930FEF0D930FEF0D930FEF21
:100166000C93B0E0A4E70FEF0D930FEF0D930FEF95
:100176000D930FEF0D930FEF0D930FEF0D930FEF01
:100186000D930FEF0C930895B0E0A0E6F0E0E4E7DE
:100196002D903080232421922D903080232421928B
:1001A6002D903080232421922D903080232421927B
:1001B6002D903080232421922D903080232421926B
:1001C6002D903080232421922D903080232420826C
:1001D6000895B0E0A0E6D0E0CCE60D9109930D912C
:1001E60009930D9109930D9109930D9109930D9121
:1001F60009930C910883B0E0A0E6D0E0C0E60F8139
:100206000D9308850D93098503270D930A850D9394
:100216000B850D930E810C93B0E0ACE6A395D0E070
:10022600C0E60D911F8101270E830D9118850127C8
:10023600FCE0E02F04910F830C9119850127FCE067
:10024600E02F04910887F0E0ECE604811A85012787
:10025600098705811B8501270A87008116810127E9
:100266000B870895D0E0C0E6B0E0ACE60E810D93B2
:100276000F810D9308850D9309850D930A850D93BE
:100286000B850C93D0E0C0E60D810E8308810F83A9
:10029600098108870A8114E1131B012709870B814D
:1002A6000A870C810B87B0E0ACE6D0E0C0E60D9182
:1002B6001F81012709830D91FCE0E02F0491188529
:1002C60001270A830D91FCE0E02F0491198501278F
:1002D6000B830D911A8501270C830D911B85012730
:1002E6000D830D911E81012708830895B0E0A4E7D0
:1002F6000C91FCE0E02F04910D930C91FCE0E02FB3
:1003060004910D930C91FCE0E02F04910D930C9158
:10031600FCE0E02F04910D930C91FCE0E02F04919A
:100326000D930C91FCE0E02F04910D930C91FCE0F1
:10033600E02F04910D930C91FCE0E02F04910C93B7
:100346000895B0E0ACE6D0E0C4E70A810D930B81D6
:100356000D930C810D930D810D930E810D930F81DD
:100366000D9308810D9309810C930895B0E0A4E7DD
:10037600D0E0CCE60881198101271A8101271B816B
:100386000127E880F980EF24FDE0EE2DE490C88097
:10039600EC24E026ED92E980FA80EF24FDE0EE2DD4
:1003A600E490C980EC24E026ED92EA80FB80EF24FD
:1003B600FDE0EE2DE490CA80EC24E026ED92EB8081
:1003C600F880EF24FDE0EE2DE490CB80EC24E026CF
:1003D600ED920C811D8101271E8101271F810127B6
:1003E600EC80FD80EF24FDE0EE2DE490CC80EC2443
:1003F600E026ED92ED80FE80EF24FDE0EE2DE49008
:10040600CD80EC24E026ED92EE80FF80EF24FDE027
:10041600EE2DE490CE80EC24E026ED92EF80FC8079
:10042600EF24FDE0EE2DE490CF80EC24E026EC9264
:100436000895B0E0ACE6D0E0C4E708810D930981E9
:100446000D930A810D930B810D930C810D930D81F4
:100456000D930E810D930F810C93B0E0ACE60D91D8
:10046600AD901D910127FDE0E02FE490FDE0EE2D1B
:10047600E490B0E0ACE6AD900D91BD901D910127E2
:10048600FDE0E02FF490FDE0EF2DF4900D91AD909E
:100496001D910127FDE0E02FC490FDE0EC2DC490F6
:1004A6000A2D1D910127FDE0E02FD490FDE0ED2DF2
:1004B600D490B0E0ACE60C910E250D930C910F256F
:1004C6000D930C910E250D930C910F250D930C9108
:1004D6000C250D930C910D250D930C910C250D9368
:1004E6000C910D250C93B0E0ACE6ED90FD90EF2459
:1004F600FD90EF24FD90EF24B0E0ACE6CD90DD90CA
:10050600CD24FDE0EC2DC490B0E0ACE60D910C25B9
:100516000E250A83CD90DC90CD24FDE0EC2DC49011
:10052600AA950C910C250E250B83A395CD90DC90F6
:10053600DC24FDE0ED2DD4900C2D0D250E250C832D
:10054600CC90B0E0ACE6DD90CD24FDE0EC2DC4907F
:100556000D910D910D910C250E250D83ED90FD90BD
:100566008D909D90AE2CBF2CC82CD92CEF24FC244A
:1005760089249E2C9824FDE0EE2DE4900A2D0E256C
:1005860009250E83FDE0EF2DF4900B2D0F2509258F
:100596000F83FDE0E82D04910C25092508830A2D1B
:1005A6000D25FDE0E02F04910D2509250983089509
:100C000077747A79717F7B707C737276787E7D756C
:100C100047444A49414F4B404C434246484E4D455C
:100C2000A7A4AAA9A1AFABA0ACA3A2A6A8AEADA54C
:100C300097949A99919F9B909C939296989E9D953C
:100C400017141A19111F1B101C131216181E1D152C
:100C5000F7F4FAF9F1FFFBF0FCF3F2F6F8FEFDF51C
:100C6000B7B4BAB9B1BFBBB0BCB3B2B6B8BEBDB50C
:100C700007040A09010F0B000C030206080E0D05FC
:100C8000C7C4CAC9C1CFCBC0CCC3C2C6C8CECDC5EC
:100C900037343A39313F3B303C333236383E3D35DC
:100CA00027242A29212F2B202C232226282E2D25CC
:100CB00067646A69616F6B606C636266686E6D65BC
:100CC00087848A89818F8B808C838286888E8D85AC
:100CD000E7E4EAE9E1EFEBE0ECE3E2E6E8EEEDE59C
:100CE000D7D4DAD9D1DFDBD0DCD3D2D6D8DEDDD58C
:100CF00057545A59515F5B505C535256585E5D557C
:100D000000020406080A0C0E10121416181A1C1EF3
:100D100020222426282A2C2E30323436383A3C3EE3
:100D200040424446484A4C4E50525456585A5C5ED3
:100D300060626466686A6C6E70727476787A7C7EC3
:100D400080828486888A8C8E90929496989A9C9EB3
:100D5000A0A2A4A6A8AAACAEB0B2B4B6B8BABCBEA3
:100D6000C0C2C4C6C8CACCCED0D2D4D6D8DADCDE93
:100D7000E0E2E4E6E8EAECEEF0F2F4F6F8FAFCFE83
:100D80001B191F1D131117150B090F0D0301070563
:100D90003B393F3D333137352B292F2D2321272553
:100DA0005B595F5D535157554B494F4D4341474543
:100DB0007B797F7D737177756B696F6D6361676533
:100DC0009B999F9D939197958B898F8D8381878523
:100DD000BBB9BFBDB3B1B7B5ABA9AFADA3A1A7A513
:100DE000DBD9DFDDD3D1D7D5CBC9CFCDC3C1C7C503
:100DF000FBF9FFFDF3F1F7F5EBE9EFEDE3E1E7E5F3
:00000001FF
